{
  "_format": "hh-sol-artifact-1",
  "contractName": "bettingSpace",
  "sourceName": "contracts/BettingContract.sol",
  "abi": [
    {
      "inputs": [],
      "stateMutability": "nonpayable",
      "type": "constructor"
    },
    {
      "anonymous": false,
      "inputs": [
        {
          "indexed": true,
          "internalType": "uint256",
          "name": "eventID",
          "type": "uint256"
        },
        {
          "indexed": false,
          "internalType": "uint256",
          "name": "winnerTeamId",
          "type": "uint256"
        }
      ],
      "name": "EventResult",
      "type": "event"
    },
    {
      "anonymous": false,
      "inputs": [
        {
          "indexed": true,
          "internalType": "uint256",
          "name": "eventId",
          "type": "uint256"
        },
        {
          "indexed": false,
          "internalType": "address",
          "name": "bittor",
          "type": "address"
        },
        {
          "indexed": false,
          "internalType": "uint256",
          "name": "teamId",
          "type": "uint256"
        }
      ],
      "name": "newBit",
      "type": "event"
    },
    {
      "anonymous": false,
      "inputs": [
        {
          "indexed": true,
          "internalType": "uint256",
          "name": "eventId",
          "type": "uint256"
        },
        {
          "indexed": false,
          "internalType": "address",
          "name": "creator",
          "type": "address"
        },
        {
          "indexed": false,
          "internalType": "uint256",
          "name": "entryFee",
          "type": "uint256"
        },
        {
          "indexed": false,
          "internalType": "uint256",
          "name": "startingTime",
          "type": "uint256"
        },
        {
          "indexed": false,
          "internalType": "uint256",
          "name": "endingTime",
          "type": "uint256"
        }
      ],
      "name": "newEvent",
      "type": "event"
    },
    {
      "anonymous": false,
      "inputs": [
        {
          "indexed": true,
          "internalType": "uint256",
          "name": "teamId",
          "type": "uint256"
        },
        {
          "indexed": true,
          "internalType": "string",
          "name": "teamName",
          "type": "string"
        }
      ],
      "name": "newTeam",
      "type": "event"
    },
    {
      "inputs": [
        {
          "internalType": "uint256",
          "name": "_eventId",
          "type": "uint256"
        }
      ],
      "name": "DistributeEventAmount",
      "outputs": [],
      "stateMutability": "nonpayable",
      "type": "function"
    },
    {
      "inputs": [
        {
          "internalType": "uint256",
          "name": "",
          "type": "uint256"
        }
      ],
      "name": "bettings",
      "outputs": [
        {
          "internalType": "address",
          "name": "creator",
          "type": "address"
        },
        {
          "internalType": "string",
          "name": "eventName",
          "type": "string"
        },
        {
          "internalType": "uint256",
          "name": "eventStartTime",
          "type": "uint256"
        },
        {
          "internalType": "uint256",
          "name": "eventEndTime",
          "type": "uint256"
        },
        {
          "internalType": "uint256",
          "name": "entryFee",
          "type": "uint256"
        },
        {
          "internalType": "uint256",
          "name": "team1Id",
          "type": "uint256"
        },
        {
          "internalType": "uint256",
          "name": "team2Id",
          "type": "uint256"
        },
        {
          "internalType": "uint256",
          "name": "totalAmountCollected",
          "type": "uint256"
        },
        {
          "internalType": "bool",
          "name": "hasDistributedAmount",
          "type": "bool"
        },
        {
          "internalType": "bool",
          "name": "hasDeclaredWinner",
          "type": "bool"
        },
        {
          "internalType": "uint256",
          "name": "winnerId",
          "type": "uint256"
        }
      ],
      "stateMutability": "view",
      "type": "function"
    },
    {
      "inputs": [
        {
          "internalType": "string",
          "name": "_eventName",
          "type": "string"
        },
        {
          "internalType": "uint256",
          "name": "_team0Id",
          "type": "uint256"
        },
        {
          "internalType": "uint256",
          "name": "_team1Id",
          "type": "uint256"
        },
        {
          "internalType": "uint256",
          "name": "_entryFee",
          "type": "uint256"
        },
        {
          "internalType": "uint256",
          "name": "_startTime",
          "type": "uint256"
        },
        {
          "internalType": "uint256",
          "name": "_endTime",
          "type": "uint256"
        }
      ],
      "name": "createBettingEvent",
      "outputs": [
        {
          "internalType": "bool",
          "name": "",
          "type": "bool"
        }
      ],
      "stateMutability": "nonpayable",
      "type": "function"
    },
    {
      "inputs": [
        {
          "internalType": "string",
          "name": "_teamName",
          "type": "string"
        }
      ],
      "name": "createTeam",
      "outputs": [
        {
          "internalType": "uint256",
          "name": "teamId",
          "type": "uint256"
        }
      ],
      "stateMutability": "nonpayable",
      "type": "function"
    },
    {
      "inputs": [
        {
          "internalType": "uint256",
          "name": "_eventId",
          "type": "uint256"
        },
        {
          "internalType": "uint256",
          "name": "winnerTeamId",
          "type": "uint256"
        }
      ],
      "name": "declareResultOfEvent",
      "outputs": [],
      "stateMutability": "nonpayable",
      "type": "function"
    },
    {
      "inputs": [
        {
          "internalType": "uint256",
          "name": "_teamId",
          "type": "uint256"
        }
      ],
      "name": "getTeamName",
      "outputs": [
        {
          "internalType": "string",
          "name": "",
          "type": "string"
        }
      ],
      "stateMutability": "view",
      "type": "function"
    },
    {
      "inputs": [
        {
          "internalType": "uint256",
          "name": "_bettingEventId",
          "type": "uint256"
        },
        {
          "internalType": "uint256",
          "name": "_teamIdToBit",
          "type": "uint256"
        }
      ],
      "name": "makeBet",
      "outputs": [
        {
          "internalType": "bool",
          "name": "",
          "type": "bool"
        }
      ],
      "stateMutability": "payable",
      "type": "function"
    },
    {
      "inputs": [],
      "name": "owner",
      "outputs": [
        {
          "internalType": "address",
          "name": "",
          "type": "address"
        }
      ],
      "stateMutability": "view",
      "type": "function"
    }
  ],
  "bytecode": "0x608060405234801561001057600080fd5b5033600460006101000a81548173ffffffffffffffffffffffffffffffffffffffff021916908373ffffffffffffffffffffffffffffffffffffffff160217905550612b24806100616000396000f3fe60806040526004361061007b5760003560e01c80639e3f84281161004e5780639e3f84281461014e578063a345688314610195578063a79968b4146101d2578063df898e32146101fb5761007b565b806338f15f6b146100805780637ab60d48146100a95780638da5cb5b146100e6578063972fa53f14610111575b600080fd5b34801561008c57600080fd5b506100a760048036038101906100a29190611814565b61022b565b005b3480156100b557600080fd5b506100d060048036038101906100cb9190611814565b61063e565b6040516100dd91906118da565b60405180910390f35b3480156100f257600080fd5b506100fb610706565b604051610108919061193d565b60405180910390f35b34801561011d57600080fd5b5061013860048036038101906101339190611a8d565b61072c565b6040516101459190611ae5565b60405180910390f35b34801561015a57600080fd5b5061017560048036038101906101709190611814565b61083c565b60405161018c9b9a99989796959493929190611b1b565b60405180910390f35b3480156101a157600080fd5b506101bc60048036038101906101b79190611bcd565b610968565b6040516101c99190611c76565b60405180910390f35b3480156101de57600080fd5b506101f960048036038101906101f49190611c91565b610dbe565b005b61021560048036038101906102109190611c91565b611014565b6040516102229190611c76565b60405180910390f35b600460009054906101000a900473ffffffffffffffffffffffffffffffffffffffff1673ffffffffffffffffffffffffffffffffffffffff163373ffffffffffffffffffffffffffffffffffffffff16146102bb576040517f08c379a00000000000000000000000000000000000000000000000000000000081526004016102b290611d1d565b60405180910390fd5b806002805490508110610303576040517f08c379a00000000000000000000000000000000000000000000000000000000081526004016102fa90611d89565b60405180910390fd5b6002828154811061031757610316611da9565b5b90600052602060002090600a020160080160009054906101000a900460ff1615610376576040517f08c379a000000000000000000000000000000000000000000000000000000000815260040161036d90611e24565b60405180910390fd5b426002838154811061038b5761038a611da9565b5b90600052602060002090600a020160030154106103dd576040517f08c379a00000000000000000000000000000000000000000000000000000000081526004016103d490611e90565b60405180910390fd5b600282815481106103f1576103f0611da9565b5b90600052602060002090600a020160080160019054906101000a900460ff1661044f576040517f08c379a000000000000000000000000000000000000000000000000000000000815260040161044690611efc565b60405180910390fd5b600061045a836115fe565b905060005b600080858152602001908152602001600020805490508110156105fa57600080600086815260200190815260200160002082815481106104a2576104a1611da9565b5b906000526020600020906002020160000160009054906101000a900473ffffffffffffffffffffffffffffffffffffffff169050600285815481106104ea576104e9611da9565b5b90600052602060002090600a02016009015460008087815260200190815260200160002083815481106105205761051f611da9565b5b90600052602060002090600202016001015414156105e65760008173ffffffffffffffffffffffffffffffffffffffff168460405161055e90611f4d565b60006040518083038185875af1925050503d806000811461059b576040519150601f19603f3d011682016040523d82523d6000602084013e6105a0565b606091505b50509050806105e4576040517f08c379a00000000000000000000000000000000000000000000000000000000081526004016105db90611fae565b60405180910390fd5b505b5080806105f290611ffd565b91505061045f565b5060016002848154811061061157610610611da9565b5b90600052602060002090600a020160080160006101000a81548160ff021916908315150217905550505050565b6060600380549050821061065157600080fd5b6003828154811061066557610664611da9565b5b9060005260206000209060020201600001805461068190612075565b80601f01602080910402602001604051908101604052809291908181526020018280546106ad90612075565b80156106fa5780601f106106cf576101008083540402835291602001916106fa565b820191906000526020600020905b8154815290600101906020018083116106dd57829003601f168201915b50505050509050919050565b600460009054906101000a900473ffffffffffffffffffffffffffffffffffffffff1681565b60008082511415610772576040517f08c379a0000000000000000000000000000000000000000000000000000000008152600401610769906120f3565b60405180910390fd5b60036040518060400160405280848152602001600380549050815250908060018154018082558091505060019003906000526020600020906002020160009091909190915060008201518160000190805190602001906107d3929190611727565b5060208201518160010155505060016003805490506107f29190612113565b9050816040516108029190612183565b6040518091039020817fcbfb48de11a4273a6562aa008820a5abae7de4807aff93f37a791c53993c252660405160405180910390a3919050565b6002818154811061084c57600080fd5b90600052602060002090600a02016000915090508060000160009054906101000a900473ffffffffffffffffffffffffffffffffffffffff169080600101805461089590612075565b80601f01602080910402602001604051908101604052809291908181526020018280546108c190612075565b801561090e5780601f106108e35761010080835404028352916020019161090e565b820191906000526020600020905b8154815290600101906020018083116108f157829003601f168201915b5050505050908060020154908060030154908060040154908060050154908060060154908060070154908060080160009054906101000a900460ff16908060080160019054906101000a900460ff1690806009015490508b565b60008560038054905081106109b2576040517f08c379a00000000000000000000000000000000000000000000000000000000081526004016109a9906121e6565b60405180910390fd5b8560038054905081106109fa576040517f08c379a00000000000000000000000000000000000000000000000000000000081526004016109f1906121e6565b60405180910390fd5b600460009054906101000a900473ffffffffffffffffffffffffffffffffffffffff1673ffffffffffffffffffffffffffffffffffffffff163373ffffffffffffffffffffffffffffffffffffffff161415610a8b576040517f08c379a0000000000000000000000000000000000000000000000000000000008152600401610a8290612278565b60405180910390fd5b600089511415610ad0576040517f08c379a0000000000000000000000000000000000000000000000000000000008152600401610ac7906122e4565b60405180910390fd5b86881415610b13576040517f08c379a0000000000000000000000000000000000000000000000000000000008152600401610b0a90612350565b60405180910390fd5b42851015610b56576040517f08c379a0000000000000000000000000000000000000000000000000000000008152600401610b4d906123e2565b60405180910390fd5b428411610b98576040517f08c379a0000000000000000000000000000000000000000000000000000000008152600401610b8f9061244e565b60405180910390fd5b83851415610bdb576040517f08c379a0000000000000000000000000000000000000000000000000000000008152600401610bd2906124e0565b60405180910390fd5b60026040518061016001604052803373ffffffffffffffffffffffffffffffffffffffff1681526020018b81526020018781526020018681526020018881526020018a815260200189815260200160008152602001600015158152602001600015158152602001600081525090806001815401808255809150506001900390600052602060002090600a020160009091909190915060008201518160000160006101000a81548173ffffffffffffffffffffffffffffffffffffffff021916908373ffffffffffffffffffffffffffffffffffffffff1602179055506020820151816001019080519060200190610cd3929190611727565b5060408201518160020155606082015181600301556080820151816004015560a0820151816005015560c0820151816006015560e082015181600701556101008201518160080160006101000a81548160ff0219169083151502179055506101208201518160080160016101000a81548160ff021916908315150217905550610140820151816009015550506001600280549050610d719190612113565b7f0e3cacf62b4466469b3541bf6bd082fd03d1784be05687a69c9eeb26219e695a33888888604051610da69493929190612500565b60405180910390a26001925050509695505050505050565b8160028181548110610dd357610dd2611da9565b5b90600052602060002090600a020160000160009054906101000a900473ffffffffffffffffffffffffffffffffffffffff1673ffffffffffffffffffffffffffffffffffffffff163373ffffffffffffffffffffffffffffffffffffffff1614610e72576040517f08c379a0000000000000000000000000000000000000000000000000000000008152600401610e69906125b7565b60405180910390fd5b60028381548110610e8657610e85611da9565b5b90600052602060002090600a0201600301544211610ed9576040517f08c379a0000000000000000000000000000000000000000000000000000000008152600401610ed090612623565b60405180910390fd5b60028381548110610eed57610eec611da9565b5b90600052602060002090600a020160050154821480610f30575060028381548110610f1b57610f1a611da9565b5b90600052602060002090600a02016006015482145b610f6f576040517f08c379a0000000000000000000000000000000000000000000000000000000008152600401610f669061268f565b60405180910390fd5b600160028481548110610f8557610f84611da9565b5b90600052602060002090600a020160080160016101000a81548160ff0219169083151502179055508160028481548110610fc257610fc1611da9565b5b90600052602060002090600a020160090181905550827fa1555cc759f36a7285551b3131697d7beae00571e9a993d2a1467b94a71cf0e8836040516110079190611ae5565b60405180910390a2505050565b600082600280549050811061105e576040517f08c379a000000000000000000000000000000000000000000000000000000000815260040161105590611d89565b60405180910390fd5b600460009054906101000a900473ffffffffffffffffffffffffffffffffffffffff1673ffffffffffffffffffffffffffffffffffffffff163373ffffffffffffffffffffffffffffffffffffffff1614156110ef576040517f08c379a00000000000000000000000000000000000000000000000000000000081526004016110e6906126fb565b60405180910390fd5b6002848154811061110357611102611da9565b5b90600052602060002090600a020160000160009054906101000a900473ffffffffffffffffffffffffffffffffffffffff1673ffffffffffffffffffffffffffffffffffffffff163373ffffffffffffffffffffffffffffffffffffffff1614156111a3576040517f08c379a000000000000000000000000000000000000000000000000000000000815260040161119a90612767565b60405180910390fd5b6001600085815260200190815260200160002060003373ffffffffffffffffffffffffffffffffffffffff1673ffffffffffffffffffffffffffffffffffffffff16815260200190815260200160002060009054906101000a900460ff1615611241576040517f08c379a0000000000000000000000000000000000000000000000000000000008152600401611238906127d3565b60405180910390fd5b6002848154811061125557611254611da9565b5b90600052602060002090600a02016005015483148061129857506002848154811061128357611282611da9565b5b90600052602060002090600a02016006015483145b6112d7576040517f08c379a00000000000000000000000000000000000000000000000000000000081526004016112ce9061283f565b60405180910390fd5b42600285815481106112ec576112eb611da9565b5b90600052602060002090600a020160020154111561133f576040517f08c379a0000000000000000000000000000000000000000000000000000000008152600401611336906128ab565b60405180910390fd5b426002858154811061135457611353611da9565b5b90600052602060002090600a020160030154116113a6576040517f08c379a000000000000000000000000000000000000000000000000000000000815260040161139d90612917565b60405180910390fd5b600284815481106113ba576113b9611da9565b5b90600052602060002090600a02016004015434101561140e576040517f08c379a000000000000000000000000000000000000000000000000000000000815260040161140590612983565b60405180910390fd5b60008085815260200190815260200160002060405180606001604052803373ffffffffffffffffffffffffffffffffffffffff16815260200160011515815260200185815250908060018154018082558091505060019003906000526020600020906002020160009091909190915060008201518160000160006101000a81548173ffffffffffffffffffffffffffffffffffffffff021916908373ffffffffffffffffffffffffffffffffffffffff16021790555060208201518160000160146101000a81548160ff021916908315150217905550604082015181600101555050600180600086815260200190815260200160002060003373ffffffffffffffffffffffffffffffffffffffff1673ffffffffffffffffffffffffffffffffffffffff16815260200190815260200160002060006101000a81548160ff0219169083151502179055506002848154811061156c5761156b611da9565b5b90600052602060002090600a0201600401546002858154811061159257611591611da9565b5b90600052602060002090600a020160070160008282546115b291906129a3565b92505081905550837f3b32723dca162f808eb41be7ac40915a650a4e3a92a6788b81bd63f7f7a9bb1033856040516115eb9291906129f9565b60405180910390a2600191505092915050565b6000806002838154811061161557611614611da9565b5b90600052602060002090600a02016009015490506000805b600080868152602001908152602001600020805490508110156116a95782600080878152602001908152602001600020828154811061166f5761166e611da9565b5b906000526020600020906002020160010154141561169657818061169290611ffd565b9250505b80806116a190611ffd565b91505061162d565b50600081116116ed576040517f08c379a00000000000000000000000000000000000000000000000000000000081526004016116e490612a6e565b60405180910390fd5b806002858154811061170257611701611da9565b5b90600052602060002090600a02016007015461171e9190612abd565b92505050919050565b82805461173390612075565b90600052602060002090601f016020900481019282611755576000855561179c565b82601f1061176e57805160ff191683800117855561179c565b8280016001018555821561179c579182015b8281111561179b578251825591602001919060010190611780565b5b5090506117a991906117ad565b5090565b5b808211156117c65760008160009055506001016117ae565b5090565b6000604051905090565b600080fd5b600080fd5b6000819050919050565b6117f1816117de565b81146117fc57600080fd5b50565b60008135905061180e816117e8565b92915050565b60006020828403121561182a576118296117d4565b5b6000611838848285016117ff565b91505092915050565b600081519050919050565b600082825260208201905092915050565b60005b8381101561187b578082015181840152602081019050611860565b8381111561188a576000848401525b50505050565b6000601f19601f8301169050919050565b60006118ac82611841565b6118b6818561184c565b93506118c681856020860161185d565b6118cf81611890565b840191505092915050565b600060208201905081810360008301526118f481846118a1565b905092915050565b600073ffffffffffffffffffffffffffffffffffffffff82169050919050565b6000611927826118fc565b9050919050565b6119378161191c565b82525050565b6000602082019050611952600083018461192e565b92915050565b600080fd5b600080fd5b7f4e487b7100000000000000000000000000000000000000000000000000000000600052604160045260246000fd5b61199a82611890565b810181811067ffffffffffffffff821117156119b9576119b8611962565b5b80604052505050565b60006119cc6117ca565b90506119d88282611991565b919050565b600067ffffffffffffffff8211156119f8576119f7611962565b5b611a0182611890565b9050602081019050919050565b82818337600083830152505050565b6000611a30611a2b846119dd565b6119c2565b905082815260208101848484011115611a4c57611a4b61195d565b5b611a57848285611a0e565b509392505050565b600082601f830112611a7457611a73611958565b5b8135611a84848260208601611a1d565b91505092915050565b600060208284031215611aa357611aa26117d4565b5b600082013567ffffffffffffffff811115611ac157611ac06117d9565b5b611acd84828501611a5f565b91505092915050565b611adf816117de565b82525050565b6000602082019050611afa6000830184611ad6565b92915050565b60008115159050919050565b611b1581611b00565b82525050565b600061016082019050611b31600083018e61192e565b8181036020830152611b43818d6118a1565b9050611b52604083018c611ad6565b611b5f606083018b611ad6565b611b6c608083018a611ad6565b611b7960a0830189611ad6565b611b8660c0830188611ad6565b611b9360e0830187611ad6565b611ba1610100830186611b0c565b611baf610120830185611b0c565b611bbd610140830184611ad6565b9c9b505050505050505050505050565b60008060008060008060c08789031215611bea57611be96117d4565b5b600087013567ffffffffffffffff811115611c0857611c076117d9565b5b611c1489828a01611a5f565b9650506020611c2589828a016117ff565b9550506040611c3689828a016117ff565b9450506060611c4789828a016117ff565b9350506080611c5889828a016117ff565b92505060a0611c6989828a016117ff565b9150509295509295509295565b6000602082019050611c8b6000830184611b0c565b92915050565b60008060408385031215611ca857611ca76117d4565b5b6000611cb6858286016117ff565b9250506020611cc7858286016117ff565b9150509250929050565b7f6f6e6c79206f776e657200000000000000000000000000000000000000000000600082015250565b6000611d07600a8361184c565b9150611d1282611cd1565b602082019050919050565b60006020820190508181036000830152611d3681611cfa565b9050919050565b7f696e76616c6964206576656e7420696400000000000000000000000000000000600082015250565b6000611d7360108361184c565b9150611d7e82611d3d565b602082019050919050565b60006020820190508181036000830152611da281611d66565b9050919050565b7f4e487b7100000000000000000000000000000000000000000000000000000000600052603260045260246000fd5b7f616c726561647920646973747269627574656400000000000000000000000000600082015250565b6000611e0e60138361184c565b9150611e1982611dd8565b602082019050919050565b60006020820190508181036000830152611e3d81611e01565b9050919050565b7f4576656e74206e6f742079657420656e64656400000000000000000000000000600082015250565b6000611e7a60138361184c565b9150611e8582611e44565b602082019050919050565b60006020820190508181036000830152611ea981611e6d565b9050919050565b7f77696e6e6572206e6f7420796574206465636c61726564000000000000000000600082015250565b6000611ee660178361184c565b9150611ef182611eb0565b602082019050919050565b60006020820190508181036000830152611f1581611ed9565b9050919050565b600081905092915050565b50565b6000611f37600083611f1c565b9150611f4282611f27565b600082019050919050565b6000611f5882611f2a565b9150819050919050565b7f657468207472616e73666572206661696c656400000000000000000000000000600082015250565b6000611f9860138361184c565b9150611fa382611f62565b602082019050919050565b60006020820190508181036000830152611fc781611f8b565b9050919050565b7f4e487b7100000000000000000000000000000000000000000000000000000000600052601160045260246000fd5b6000612008826117de565b91507fffffffffffffffffffffffffffffffffffffffffffffffffffffffffffffffff82141561203b5761203a611fce565b5b600182019050919050565b7f4e487b7100000000000000000000000000000000000000000000000000000000600052602260045260246000fd5b6000600282049050600182168061208d57607f821691505b602082108114156120a1576120a0612046565b5b50919050565b7f696e76616c6964207465616d206e616d65000000000000000000000000000000600082015250565b60006120dd60118361184c565b91506120e8826120a7565b602082019050919050565b6000602082019050818103600083015261210c816120d0565b9050919050565b600061211e826117de565b9150612129836117de565b92508282101561213c5761213b611fce565b5b828203905092915050565b600081905092915050565b600061215d82611841565b6121678185612147565b935061217781856020860161185d565b80840191505092915050565b600061218f8284612152565b915081905092915050565b7f696e76616c6964207465616d2069640000000000000000000000000000000000600082015250565b60006121d0600f8361184c565b91506121db8261219a565b602082019050919050565b600060208201905081810360008301526121ff816121c3565b9050919050565b7f6f776e65722063616e6e6f74206372656174652062657474696e67206576656e60008201527f7400000000000000000000000000000000000000000000000000000000000000602082015250565b600061226260218361184c565b915061226d82612206565b604082019050919050565b6000602082019050818103600083015261229181612255565b9050919050565b7f696e76616c6964206576656e74206e616d650000000000000000000000000000600082015250565b60006122ce60128361184c565b91506122d982612298565b602082019050919050565b600060208201905081810360008301526122fd816122c1565b9050919050565b7f7465616d2069642063616e6e6f742062652073616d6500000000000000000000600082015250565b600061233a60168361184c565b915061234582612304565b602082019050919050565b600060208201905081810360008301526123698161232d565b9050919050565b7f7374617274696e672074696d652073686f756c6420626520677265617465722060008201527f7468616e2063757272656e742074696d65000000000000000000000000000000602082015250565b60006123cc60318361184c565b91506123d782612370565b604082019050919050565b600060208201905081810360008301526123fb816123bf565b9050919050565b7f696e76616c696420656e64696e672074696d6500000000000000000000000000600082015250565b600061243860138361184c565b915061244382612402565b602082019050919050565b600060208201905081810360008301526124678161242b565b9050919050565b7f73746172742074696d6520616e6420656e642074696d652063616e6e6f74206260008201527f652073616d650000000000000000000000000000000000000000000000000000602082015250565b60006124ca60268361184c565b91506124d58261246e565b604082019050919050565b600060208201905081810360008301526124f9816124bd565b9050919050565b6000608082019050612515600083018761192e565b6125226020830186611ad6565b61252f6040830185611ad6565b61253c6060830184611ad6565b95945050505050565b7f6f6e6c79206576656e742063726561746f722063616e206578697374206f722060008201527f696e76616c696420696400000000000000000000000000000000000000000000602082015250565b60006125a1602a8361184c565b91506125ac82612545565b604082019050919050565b600060208201905081810360008301526125d081612594565b9050919050565b7f6576656e74206e6f742079657420656e64656400000000000000000000000000600082015250565b600061260d60138361184c565b9150612618826125d7565b602082019050919050565b6000602082019050818103600083015261263c81612600565b9050919050565b7f696e76616c696420696400000000000000000000000000000000000000000000600082015250565b6000612679600a8361184c565b915061268482612643565b602082019050919050565b600060208201905081810360008301526126a88161266c565b9050919050565b7f636f6e7472616374206f776e65722063616e6e6f742062697400000000000000600082015250565b60006126e560198361184c565b91506126f0826126af565b602082019050919050565b60006020820190508181036000830152612714816126d8565b9050919050565b7f6576656e742063726561746f722063616e6e6f74206269740000000000000000600082015250565b600061275160188361184c565b915061275c8261271b565b602082019050919050565b6000602082019050818103600083015261278081612744565b9050919050565b7f63616e206f6e6c7920626974206f6e6365000000000000000000000000000000600082015250565b60006127bd60118361184c565b91506127c882612787565b602082019050919050565b600060208201905081810360008301526127ec816127b0565b9050919050565b7f696e76616c6964207465616d2069642063686f6f73656e000000000000000000600082015250565b600061282960178361184c565b9150612834826127f3565b602082019050919050565b600060208201905081810360008301526128588161281c565b9050919050565b7f4576656e74206e6f742079657420737461727465640000000000000000000000600082015250565b600061289560158361184c565b91506128a08261285f565b602082019050919050565b600060208201905081810360008301526128c481612888565b9050919050565b7f4576656e7420656e646564000000000000000000000000000000000000000000600082015250565b6000612901600b8361184c565b915061290c826128cb565b602082019050919050565b60006020820190508181036000830152612930816128f4565b9050919050565b7f696e73756666696369656e742076616c75652072656365766965640000000000600082015250565b600061296d601b8361184c565b915061297882612937565b602082019050919050565b6000602082019050818103600083015261299c81612960565b9050919050565b60006129ae826117de565b91506129b9836117de565b9250827fffffffffffffffffffffffffffffffffffffffffffffffffffffffffffffffff038211156129ee576129ed611fce565b5b828201905092915050565b6000604082019050612a0e600083018561192e565b612a1b6020830184611ad6565b9392505050565b7f6e6f2077696e6e65727300000000000000000000000000000000000000000000600082015250565b6000612a58600a8361184c565b9150612a6382612a22565b602082019050919050565b60006020820190508181036000830152612a8781612a4b565b9050919050565b7f4e487b7100000000000000000000000000000000000000000000000000000000600052601260045260246000fd5b6000612ac8826117de565b9150612ad3836117de565b925082612ae357612ae2612a8e565b5b82820490509291505056fea26469706673582212200005bae087c6349193e819a5a4dc43f35012c4a6008ec6f0298b304d8f198a6964736f6c63430008090033",
  "linkReferences": {},
  "deployedLinkReferences": {}
}